{
  "transactions": [
    {
      "hash": "0xc73cc48270cb1282834b3c2c4cfd287073f0f8d2b6e4a312ac9e811837321dae",
      "transactionType": "CALL",
      "contractName": null,
      "contractAddress": "0x1494432a8af6fa8c03c0d7dd7720e298d85c55c7",
      "function": "setPrice(int256)",
      "arguments": [
        "100000000"
      ],
      "transaction": {
        "from": "0xe37a8983570b39f305fe93d565a29f89366f3ffe",
        "to": "0x1494432a8af6fa8c03c0d7dd7720e298d85c55c7",
        "gas": "0xf5f8",
        "value": "0x0",
        "input": "0xf7a308060000000000000000000000000000000000000000000000000000000005f5e100",
        "nonce": "0x7a6",
        "chainId": "0x190f1b41"
      },
      "additionalContracts": [],
      "isFixedGasLimit": false
    },
    {
      "hash": "0x085da5c2ef2bc6f70079cd6f7ded4a06a22c8931ee43d4c9d9c46f41afdccb8f",
      "transactionType": "CALL",
      "contractName": null,
      "contractAddress": "0x5998ce005b4f3923c988ae31940faa1deac0c646",
      "function": "mint(address,uint256)",
      "arguments": [
        "0xe37a8983570B39F305fe93D565A29F89366f3fFe",
        "20000000000"
      ],
      "transaction": {
        "from": "0xe37a8983570b39f305fe93d565a29f89366f3ffe",
        "to": "0x5998ce005b4f3923c988ae31940faa1deac0c646",
        "gas": "0xb736",
        "value": "0x0",
        "input": "0x40c10f19000000000000000000000000e37a8983570b39f305fe93d565a29f89366f3ffe00000000000000000000000000000000000000000000000000000004a817c800",
        "nonce": "0x7a7",
        "chainId": "0x190f1b41"
      },
      "additionalContracts": [],
      "isFixedGasLimit": false
    },
    {
      "hash": "0x038ef9163aecf85567de33b5e19fbcbe18972c0edfa1d6c3b9a1dee47e69ea2c",
      "transactionType": "CALL",
      "contractName": null,
      "contractAddress": "0x5998ce005b4f3923c988ae31940faa1deac0c646",
      "function": "approve(address,uint256)",
      "arguments": [
        "0x0415C54C2F1b499EA03697A9Db77a1d5d640F4Bf",
        "10000000000"
      ],
      "transaction": {
        "from": "0xe37a8983570b39f305fe93d565a29f89366f3ffe",
        "to": "0x5998ce005b4f3923c988ae31940faa1deac0c646",
        "gas": "0xf7b2",
        "value": "0x0",
        "input": "0x095ea7b30000000000000000000000000415c54c2f1b499ea03697a9db77a1d5d640f4bf00000000000000000000000000000000000000000000000000000002540be400",
        "nonce": "0x7a8",
        "chainId": "0x190f1b41"
      },
      "additionalContracts": [],
      "isFixedGasLimit": false
    },
    {
      "hash": "0x0c42238240ebbca1c6517fd52a691a82da3f9cbd5b0fa949956d470200f8f5e6",
      "transactionType": "CALL",
      "contractName": null,
      "contractAddress": "0x0415c54c2f1b499ea03697a9db77a1d5d640f4bf",
      "function": "deposit(uint256)",
      "arguments": [
        "10000000000"
      ],
      "transaction": {
        "from": "0xe37a8983570b39f305fe93d565a29f89366f3ffe",
        "to": "0x0415c54c2f1b499ea03697a9db77a1d5d640f4bf",
        "gas": "0x16e46",
        "value": "0x0",
        "input": "0xb6b55f2500000000000000000000000000000000000000000000000000000002540be400",
        "nonce": "0x7a9",
        "chainId": "0x190f1b41"
      },
      "additionalContracts": [],
      "isFixedGasLimit": false
    },
    {
      "hash": "0x94ed6466eb892a0d3109309c07725876ea6560782358f73c40005fd4d3d15856",
      "transactionType": "CALL",
      "contractName": null,
      "contractAddress": "0x5998ce005b4f3923c988ae31940faa1deac0c646",
      "function": "approve(address,uint256)",
      "arguments": [
        "0x05d9B20573A6C7500d8b320902B473e1A442dbA5",
        "10000000000"
      ],
      "transaction": {
        "from": "0xe37a8983570b39f305fe93d565a29f89366f3ffe",
        "to": "0x5998ce005b4f3923c988ae31940faa1deac0c646",
        "gas": "0xf7b2",
        "value": "0x0",
        "input": "0x095ea7b300000000000000000000000005d9b20573a6c7500d8b320902b473e1a442dba500000000000000000000000000000000000000000000000000000002540be400",
        "nonce": "0x7aa",
        "chainId": "0x190f1b41"
      },
      "additionalContracts": [],
      "isFixedGasLimit": false
    },
    {
      "hash": null,
      "transactionType": "CALL",
      "contractName": null,
      "contractAddress": "0x05d9b20573a6c7500d8b320902b473e1a442dba5",
      "function": "deposit(uint256)",
      "arguments": [
        "10000000000"
      ],
      "transaction": {
        "from": "0xe37a8983570b39f305fe93d565a29f89366f3ffe",
        "to": "0x05d9b20573a6c7500d8b320902b473e1a442dba5",
        "gas": "0x17b30",
        "value": "0x0",
        "input": "0xb6b55f2500000000000000000000000000000000000000000000000000000002540be400",
        "nonce": "0x7ab",
        "chainId": "0x190f1b41"
      },
      "additionalContracts": [],
      "isFixedGasLimit": false
    },
    {
      "hash": null,
      "transactionType": "CALL",
      "contractName": null,
      "contractAddress": "0x5998ce005b4f3923c988ae31940faa1deac0c646",
      "function": "mint(address,uint256)",
      "arguments": [
        "0x5EF0a87f578778Fc78cbFe318D3444D71Ff638da",
        "10000000000"
      ],
      "transaction": {
        "from": "0x5ef0a87f578778fc78cbfe318d3444d71ff638da",
        "to": "0x5998ce005b4f3923c988ae31940faa1deac0c646",
        "gas": "0xb736",
        "value": "0x0",
        "input": "0x40c10f190000000000000000000000005ef0a87f578778fc78cbfe318d3444d71ff638da00000000000000000000000000000000000000000000000000000002540be400",
        "nonce": "0xe",
        "chainId": "0x190f1b41"
      },
      "additionalContracts": [],
      "isFixedGasLimit": false
    },
    {
      "hash": null,
      "transactionType": "CALL",
      "contractName": null,
      "contractAddress": "0x5998ce005b4f3923c988ae31940faa1deac0c646",
      "function": "approve(address,uint256)",
      "arguments": [
        "0x0415C54C2F1b499EA03697A9Db77a1d5d640F4Bf",
        "5000000000"
      ],
      "transaction": {
        "from": "0x5ef0a87f578778fc78cbfe318d3444d71ff638da",
        "to": "0x5998ce005b4f3923c988ae31940faa1deac0c646",
        "gas": "0xf7b2",
        "value": "0x0",
        "input": "0x095ea7b30000000000000000000000000415c54c2f1b499ea03697a9db77a1d5d640f4bf000000000000000000000000000000000000000000000000000000012a05f200",
        "nonce": "0xf",
        "chainId": "0x190f1b41"
      },
      "additionalContracts": [],
      "isFixedGasLimit": false
    },
    {
      "hash": null,
      "transactionType": "CALL",
      "contractName": null,
      "contractAddress": "0x0415c54c2f1b499ea03697a9db77a1d5d640f4bf",
      "function": "deposit(uint256)",
      "arguments": [
        "5000000000"
      ],
      "transaction": {
        "from": "0x5ef0a87f578778fc78cbfe318d3444d71ff638da",
        "to": "0x0415c54c2f1b499ea03697a9db77a1d5d640f4bf",
        "gas": "0x290ff",
        "value": "0x0",
        "input": "0xb6b55f25000000000000000000000000000000000000000000000000000000012a05f200",
        "nonce": "0x10",
        "chainId": "0x190f1b41"
      },
      "additionalContracts": [],
      "isFixedGasLimit": false
    },
    {
      "hash": null,
      "transactionType": "CALL",
      "contractName": null,
      "contractAddress": "0x5998ce005b4f3923c988ae31940faa1deac0c646",
      "function": "approve(address,uint256)",
      "arguments": [
        "0x05d9B20573A6C7500d8b320902B473e1A442dbA5",
        "5000000000"
      ],
      "transaction": {
        "from": "0x5ef0a87f578778fc78cbfe318d3444d71ff638da",
        "to": "0x5998ce005b4f3923c988ae31940faa1deac0c646",
        "gas": "0xf7b2",
        "value": "0x0",
        "input": "0x095ea7b300000000000000000000000005d9b20573a6c7500d8b320902b473e1a442dba5000000000000000000000000000000000000000000000000000000012a05f200",
        "nonce": "0x11",
        "chainId": "0x190f1b41"
      },
      "additionalContracts": [],
      "isFixedGasLimit": false
    },
    {
      "hash": null,
      "transactionType": "CALL",
      "contractName": null,
      "contractAddress": "0x05d9b20573a6c7500d8b320902b473e1a442dba5",
      "function": "deposit(uint256)",
      "arguments": [
        "5000000000"
      ],
      "transaction": {
        "from": "0x5ef0a87f578778fc78cbfe318d3444d71ff638da",
        "to": "0x05d9b20573a6c7500d8b320902b473e1a442dba5",
        "gas": "0x2c551",
        "value": "0x0",
        "input": "0xb6b55f25000000000000000000000000000000000000000000000000000000012a05f200",
        "nonce": "0x12",
        "chainId": "0x190f1b41"
      },
      "additionalContracts": [],
      "isFixedGasLimit": false
    }
  ],
  "receipts": [
    {
      "status": "0x1",
      "cumulativeGasUsed": "0x0",
      "logs": [
        {
          "address": "0x1494432a8af6fa8c03c0d7dd7720e298d85c55c7",
          "topics": [
            "0xb6984bf8cf976e6d4cf6771258c1e9ebe943bfb715c27a34b80b6319235e4468"
          ],
          "data": "0x0000000000000000000000000000000000000000000000000000000005f5e10000000000000000000000000000000000000000000000000000000000000006300000000000000000000000000000000000000000000000000000000069ac2834",
          "blockHash": "0x70e9fce77ab98f291c0ef27ca4529050f89a719911c6711b9eef9715ca52c2fa",
          "blockNumber": "0x5d3c06",
          "transactionHash": "0xc73cc48270cb1282834b3c2c4cfd287073f0f8d2b6e4a312ac9e811837321dae",
          "transactionIndex": "0x2",
          "logIndex": "0x5",
          "removed": false
        }
      ],
      "logsBloom": "0x00000000000000000000000000000000000000000000000000000000000000000000000000000000000000000000000000000000000000000000000000000000000000400000000000000000000000000000000000000000000000000000000000000000000000000000001000000000000000000000000000000000000000000000000000000000000000000000000000000000000000800000000000000000000000000000000000000000800000008000000000000000000000000000000000000000000000000000000000000000000000000000000000000000000000000000000000000100000000000000000000000000000000000000000000000000",
      "type": "0x0",
      "transactionHash": "0xc73cc48270cb1282834b3c2c4cfd287073f0f8d2b6e4a312ac9e811837321dae",
      "transactionIndex": "0x2",
      "blockHash": "0x70e9fce77ab98f291c0ef27ca4529050f89a719911c6711b9eef9715ca52c2fa",
      "blockNumber": "0x5d3c06",
      "gasUsed": "0x5ee",
      "effectiveGasPrice": "0xe8d4a51000",
      "from": "0xe37a8983570b39f305fe93d565a29f89366f3ffe",
      "to": "0x1494432a8af6fa8c03c0d7dd7720e298d85c55c7",
      "contractAddress": null
    },
    {
      "status": "0x1",
      "cumulativeGasUsed": "0x0",
      "logs": [
        {
          "address": "0x5998ce005b4f3923c988ae31940faa1deac0c646",
          "topics": [
            "0xddf252ad1be2c89b69c2b068fc378daa952ba7f163c4a11628f55a4df523b3ef",
            "0x0000000000000000000000000000000000000000000000000000000000000000",
            "0x000000000000000000000000e37a8983570b39f305fe93d565a29f89366f3ffe"
          ],
          "data": "0x00000000000000000000000000000000000000000000000000000004a817c800",
          "blockHash": "0x7d71b8597f64405bdd7089585a997aeb62bce11e6e1726a9ca166bd421c8d98f",
          "blockNumber": "0x5d3c07",
          "transactionHash": "0x085da5c2ef2bc6f70079cd6f7ded4a06a22c8931ee43d4c9d9c46f41afdccb8f",
          "transactionIndex": "0x2",
          "logIndex": "0x5",
          "removed": false
        }
      ],
      "logsBloom": "0x0000000000000000000000000000000000000000000000000000000000000000000000000000000000000000000000000000000000000000000000000000000000000000000000000000000800000000000000000008000000000000000000000000000002000000000000000000080000000000000000000000001000000000000000000000000000000000000000000000000000000000082000000000000000000000000001000000000000000000000000000000000000000000000000000000000a000000000000000000000000000000000000000000000000040020000000000000000000000000000000000000000000000000000000000000000000",
      "type": "0x0",
      "transactionHash": "0x085da5c2ef2bc6f70079cd6f7ded4a06a22c8931ee43d4c9d9c46f41afdccb8f",
      "transactionIndex": "0x2",
      "blockHash": "0x7d71b8597f64405bdd7089585a997aeb62bce11e6e1726a9ca166bd421c8d98f",
      "blockNumber": "0x5d3c07",
      "gasUsed": "0x5df",
      "effectiveGasPrice": "0xe8d4a51000",
      "from": "0xe37a8983570b39f305fe93d565a29f89366f3ffe",
      "to": "0x5998ce005b4f3923c988ae31940faa1deac0c646",
      "contractAddress": null
    },
    {
      "status": "0x1",
      "cumulativeGasUsed": "0x0",
      "logs": [
        {
          "address": "0x5998ce005b4f3923c988ae31940faa1deac0c646",
          "topics": [
            "0x8c5be1e5ebec7d5bd14f71427d1e84f3dd0314c0f7b2291e5b200ac8c7c3b925",
            "0x000000000000000000000000e37a8983570b39f305fe93d565a29f89366f3ffe",
            "0x0000000000000000000000000415c54c2f1b499ea03697a9db77a1d5d640f4bf"
          ],
          "data": "0x00000000000000000000000000000000000000000000000000000002540be400",
          "blockHash": "0x235be12a20c098cf56dff4f6175d43994ba4de41beb91d833f84961ac52a4f2c",
          "blockNumber": "0x5d3c08",
          "transactionHash": "0x038ef9163aecf85567de33b5e19fbcbe18972c0edfa1d6c3b9a1dee47e69ea2c",
          "transactionIndex": "0x2",
          "logIndex": "0x5",
          "removed": false
        }
      ],
      "logsBloom": "0x00000000008000000000000000000000000000000000000000000000000000000000000000000000000000000000000000000000000000000000000000200000400000000000000000000000000000000000000000080000000000000000000000000000000000000000000000000000000000000000000000000000000000000000000000000000000000000000000000000000000000000820000000000000020000000100010000000000000000000000000000000000000000000000000000000008000000000000000000000000000000000000000000000000040000000010000000000000000000000000000000000000000000000000000000000000",
      "type": "0x0",
      "transactionHash": "0x038ef9163aecf85567de33b5e19fbcbe18972c0edfa1d6c3b9a1dee47e69ea2c",
      "transactionIndex": "0x2",
      "blockHash": "0x235be12a20c098cf56dff4f6175d43994ba4de41beb91d833f84961ac52a4f2c",
      "blockNumber": "0x5d3c08",
      "gasUsed": "0x556e",
      "effectiveGasPrice": "0xe8d4a51000",
      "from": "0xe37a8983570b39f305fe93d565a29f89366f3ffe",
      "to": "0x5998ce005b4f3923c988ae31940faa1deac0c646",
      "contractAddress": null
    },
    {
      "status": "0x1",
      "cumulativeGasUsed": "0x0",
      "logs": [
        {
          "address": "0x5998ce005b4f3923c988ae31940faa1deac0c646",
          "topics": [
            "0xddf252ad1be2c89b69c2b068fc378daa952ba7f163c4a11628f55a4df523b3ef",
            "0x000000000000000000000000e37a8983570b39f305fe93d565a29f89366f3ffe",
            "0x0000000000000000000000000415c54c2f1b499ea03697a9db77a1d5d640f4bf"
          ],
          "data": "0x00000000000000000000000000000000000000000000000000000002540be400",
          "blockHash": "0x7678fdc8abe65ade74956405029d0cea949ee1445e485cf0e7a04304689bdcf5",
          "blockNumber": "0x5d3c0a",
          "transactionHash": "0x0c42238240ebbca1c6517fd52a691a82da3f9cbd5b0fa949956d470200f8f5e6",
          "transactionIndex": "0x2",
          "logIndex": "0x5",
          "removed": false
        },
        {
          "address": "0x0415c54c2f1b499ea03697a9db77a1d5d640f4bf",
          "topics": [
            "0x2da466a7b24304f47e87fa2e1e5a81b9831ce54fec19055ce277ca2f39ba42c4",
            "0x000000000000000000000000e37a8983570b39f305fe93d565a29f89366f3ffe"
          ],
          "data": "0x00000000000000000000000000000000000000000000000000000002540be400",
          "blockHash": "0x7678fdc8abe65ade74956405029d0cea949ee1445e485cf0e7a04304689bdcf5",
          "blockNumber": "0x5d3c0a",
          "transactionHash": "0x0c42238240ebbca1c6517fd52a691a82da3f9cbd5b0fa949956d470200f8f5e6",
          "transactionIndex": "0x2",
          "logIndex": "0x6",
          "removed": false
        }
      ],
      "logsBloom": "0x0000000000800000000000000000000000000000004000000000000000000000000000000000000000000000000000000000000000000000000000000000000040000000000000000000000800000000000000000008000000000000000020000000000000000000000000000000000000000000000000000000001000020000000000000000000000000000000000000000000000000000082000000000000000000000010001000000000000000000000000000000008000000000000000000000000a000000000000000000000000000000000000000000000000040000000040000000000000000000000080000000000000000000000000000000000000",
      "type": "0x0",
      "transactionHash": "0x0c42238240ebbca1c6517fd52a691a82da3f9cbd5b0fa949956d470200f8f5e6",
      "transactionIndex": "0x2",
      "blockHash": "0x7678fdc8abe65ade74956405029d0cea949ee1445e485cf0e7a04304689bdcf5",
      "blockNumber": "0x5d3c0a",
      "gasUsed": "0x0",
      "effectiveGasPrice": "0xe8d4a51000",
      "from": "0xe37a8983570b39f305fe93d565a29f89366f3ffe",
      "to": "0x0415c54c2f1b499ea03697a9db77a1d5d640f4bf",
      "contractAddress": null
    }
  ],
  "libraries": [],
  "pending": [
    "0x94ed6466eb892a0d3109309c07725876ea6560782358f73c40005fd4d3d15856"
  ],
  "returns": {},
  "timestamp": 1772890181476,
  "chain": 420420417,
  "commit": "024587d3"
}